:03000000020A0FE2
:0C0A0F00787FE4F6D8FD75811C0208F623
:1009FB004D414E53494D4943524F434F4E54524F25
:040A0B004C4C4552B8
:1008F60078087C007D007BFF7A0979FB7E007F0506
:100906001208D0780D7C007D007BFF7A0A79007E84
:10091600007F0F1208D0E4F5B0F5A07F38120A1B4D
:100926001209987F0E120A1B1209987F06120A1BDB
:100936001209987F85120A1B120998E4F51CC3E573
:100946001C94057480948050157408251CF8E6FFE5
:10095600120A257D017F0512099C051C80E07FC0D7
:10096600120A1B120998E4F51CC3E51C940F748047
:1009760094805019740D251CF8E6FF120A257D0196
:0D0986007C007F057E001209A0051C80DCAE
:010993002241
:0C099400C2A1D2A27D027F027C007E0086
:1009A000E4FBFAC3EB9FEE6480F8EA648098504A57
:1009B000900000C3E5829DEC6480F8E58364809834
:1009C0005031E4FAFBC3EB9FEE6480F8EA64809850
:1009D000501EE4F583F582C3E5829DEC6480F8E562
:1009E000836480985003A380EE0BBB00010A80D57E
:0A09F000A380C00BBB00010A80A920
:0109FA0022DA
:0A0A1B008FB0C2A0120994C2A222FB
:0A0A25008FB0D2A0120994C2A222E1
:10080000E709F608DFFA8046E709F208DFFA803EDA
:1008100088828C83E709F0A3DFFA8032E309F608C7
:10082000DFFA8078E309F208DFFA807088828C832F
:10083000E309F0A3DFFA806489828A83E0A3F608E3
:10084000DFFA805889828A83E0A3F208DFFA804CBD
:1008500080D280FA80C680D4806980F28033801094
:1008600080A680EA809A80A880DA80E280CA8033FD
:1008700089828A83ECFAE493A3C8C582C8CCC58375
:10088000CCF0A3C8C582C8CCC583CCDFE9DEE78045
:100890000D89828A83E493A3F608DFF9ECFAA9F0C4
:1008A000EDFB2289828A83ECFAE0A3C8C582C8CC1A
:1008B000C583CCF0A3C8C582C8CCC583CCDFEADE33
:1008C000E880DB89828A83E493A3F208DFF980CC95
:1008D00088F0EF60010E4E60C388F0ED2402B4048E
:1008E0000050B9F582EB2402B4040050AF23234535
:0608F00082239008507302
:00000001FF
